{
  "contractName": "Migrations",
  "abi": [
    {
      "constant": false,
      "inputs": [
        {
          "name": "new_address",
          "type": "address"
        }
      ],
      "name": "upgrade",
      "outputs": [],
      "payable": false,
      "stateMutability": "nonpayable",
      "type": "function"
    },
    {
      "constant": true,
      "inputs": [],
      "name": "last_completed_migration",
      "outputs": [
        {
          "name": "",
          "type": "uint256"
        }
      ],
      "payable": false,
      "stateMutability": "view",
      "type": "function"
    },
    {
      "constant": true,
      "inputs": [],
      "name": "owner",
      "outputs": [
        {
          "name": "",
          "type": "address"
        }
      ],
      "payable": false,
      "stateMutability": "view",
      "type": "function"
    },
    {
      "constant": false,
      "inputs": [
        {
          "name": "completed",
          "type": "uint256"
        }
      ],
      "name": "setCompleted",
      "outputs": [],
      "payable": false,
      "stateMutability": "nonpayable",
      "type": "function"
    },
    {
      "inputs": [],
      "payable": false,
      "stateMutability": "nonpayable",
      "type": "constructor"
    }
  ],
  "bytecode": "0x6060604052341561000f57600080fd5b60008054600160a060020a033316600160a060020a03199091161790556101de8061003b6000396000f300606060405263ffffffff7c01000000000000000000000000000000000000000000000000000000006000350416630900f010811461005d578063445df0ac1461007e5780638da5cb5b146100a3578063fdacd576146100d257600080fd5b341561006857600080fd5b61007c600160a060020a03600435166100e8565b005b341561008957600080fd5b61009161017d565b60405190815260200160405180910390f35b34156100ae57600080fd5b6100b6610183565b604051600160a060020a03909116815260200160405180910390f35b34156100dd57600080fd5b61007c600435610192565b6000805433600160a060020a03908116911614156101795781905080600160a060020a031663fdacd5766001546040517c010000000000000000000000000000000000000000000000000000000063ffffffff84160281526004810191909152602401600060405180830381600087803b151561016457600080fd5b6102c65a03f1151561017557600080fd5b5050505b5050565b60015481565b600054600160a060020a031681565b60005433600160a060020a03908116911614156101af5760018190555b505600a165627a7a7230582005a4d75bea17928ac7e3986517acdab07f8dfb7955b333e8dfeebc24376a9f170029",
  "source": "pragma solidity ^0.4.17;\r\n\r\ncontract Migrations {\r\n  address public owner;\r\n  uint public last_completed_migration;\r\n\r\n  modifier restricted() {\r\n    if (msg.sender == owner) _;\r\n  }\r\n\r\n  function Migrations() public {\r\n    owner = msg.sender;\r\n  }\r\n\r\n  function setCompleted(uint completed) public restricted {\r\n    last_completed_migration = completed;\r\n  }\r\n\r\n  function upgrade(address new_address) public restricted {\r\n    Migrations upgraded = Migrations(new_address);\r\n    upgraded.setCompleted(last_completed_migration);\r\n  }\r\n}\r\n",
  "sourcePath": "C:\\Users\\Fabio\\Desktop\\ubiatar\\UbiatarCoin\\contracts\\Migrations.sol",
  "schemaVersion": "1.0.0",
  "updatedAt": "2018-01-20T11:41:20.280Z"
}