{
  "contractName": "Owned",
  "abi": [
    {
      "constant": false,
      "inputs": [
        {
          "name": "newOwner",
          "type": "address"
        }
      ],
      "name": "setCandidate",
      "outputs": [
        {
          "name": "success",
          "type": "bool"
        }
      ],
      "payable": false,
      "stateMutability": "nonpayable",
      "type": "function"
    },
    {
      "constant": true,
      "inputs": [],
      "name": "owner",
      "outputs": [
        {
          "name": "",
          "type": "address"
        }
      ],
      "payable": false,
      "stateMutability": "view",
      "type": "function"
    },
    {
      "constant": false,
      "inputs": [],
      "name": "getOwnership",
      "outputs": [
        {
          "name": "success",
          "type": "bool"
        }
      ],
      "payable": false,
      "stateMutability": "nonpayable",
      "type": "function"
    },
    {
      "constant": true,
      "inputs": [],
      "name": "candidateOwner",
      "outputs": [
        {
          "name": "",
          "type": "address"
        }
      ],
      "payable": false,
      "stateMutability": "view",
      "type": "function"
    },
    {
      "inputs": [],
      "payable": false,
      "stateMutability": "nonpayable",
      "type": "constructor"
    },
    {
      "anonymous": false,
      "inputs": [
        {
          "indexed": false,
          "name": "success",
          "type": "bool"
        }
      ],
      "name": "UpdatedCandidate",
      "type": "event"
    },
    {
      "anonymous": false,
      "inputs": [
        {
          "indexed": false,
          "name": "success",
          "type": "bool"
        }
      ],
      "name": "GotOwnership",
      "type": "event"
    }
  ],
  "bytecode": "0x6060604052341561000f57600080fd5b60008054600160a060020a033316600160a060020a03199182161790915560018054909116905561024e806100456000396000f300606060405263ffffffff7c010000000000000000000000000000000000000000000000000000000060003504166307880b7f811461005d5780638da5cb5b14610090578063aacd7321146100bf578063c105ea2b146100d257600080fd5b341561006857600080fd5b61007c600160a060020a03600435166100e5565b604051901515815260200160405180910390f35b341561009b57600080fd5b6100a3610164565b604051600160a060020a03909116815260200160405180910390f35b34156100ca57600080fd5b61007c610173565b34156100dd57600080fd5b6100a3610213565b6000805433600160a060020a0390811691161461010157600080fd5b506001805473ffffffffffffffffffffffffffffffffffffffff1916600160a060020a0383161781557f7e87553fb7b0cd614970b6fc082f64d74528668c3c8dc811c7b2f46db172ff7181604051901515815260200160405180910390a1919050565b600054600160a060020a031681565b600154600090600160a060020a0316151561018d57600080fd5b60015433600160a060020a039081169116146101a857600080fd5b50600180546000805473ffffffffffffffffffffffffffffffffffffffff19908116600160a060020a038416179091551681557f7e8c03b805609103b8d7f06e831995c6a2ab216649e1bf22ef59e31957d84c8981604051901515815260200160405180910390a190565b600154600160a060020a0316815600a165627a7a72305820ede6a24147ed379034210179bbfe71c5c1ac32967275ae7d197e2c50b27115870029",
  "source": "pragma solidity ^0.4.17;\r\n\r\n\r\ncontract Owned {\r\n    address public owner;\r\n    address public candidateOwner;\r\n\r\n    event UpdatedCandidate(bool success);\r\n    event GotOwnership(bool success);\r\n\r\n    function Owned()\r\n    public\r\n    {\r\n        owner = msg.sender;\r\n        candidateOwner = 0x0;\r\n    }\r\n\r\n    function setCandidate (address newOwner)\r\n    onlyOwner\r\n    returns (bool success)\r\n    {\r\n        candidateOwner = newOwner;\r\n        success = true;\r\n        UpdatedCandidate(success);\r\n        return;\r\n    }\r\n\r\n    function getOwnership ()\r\n    onlyCandidate\r\n    returns (bool success)\r\n    {\r\n        owner = candidateOwner;\r\n        candidateOwner = 0x0;\r\n        success = true;\r\n        GotOwnership(success);\r\n        return;\r\n    }\r\n\r\n    modifier onlyOwner {\r\n        require(msg.sender == owner);\r\n        _;\r\n    }\r\n\r\n    modifier onlyCandidate {\r\n        require(candidateOwner != 0x0);\r\n        require(msg.sender == candidateOwner);\r\n        _;\r\n    }\r\n}",
  "sourcePath": "C:\\Users\\Fabio\\Desktop\\ubiatar\\UbiatarCoin\\contracts\\Owned.sol",
  "schemaVersion": "1.0.0",
  "updatedAt": "2018-01-20T11:41:20.281Z"
}