{
  "contractName": "UbiatarCoin",
  "abi": [
    {
      "constant": true,
      "inputs": [],
      "name": "name",
      "outputs": [
        {
          "name": "",
          "type": "string"
        }
      ],
      "payable": false,
      "stateMutability": "view",
      "type": "function"
    },
    {
      "constant": false,
      "inputs": [
        {
          "name": "newOwner",
          "type": "address"
        }
      ],
      "name": "setCandidate",
      "outputs": [
        {
          "name": "success",
          "type": "bool"
        }
      ],
      "payable": false,
      "stateMutability": "nonpayable",
      "type": "function"
    },
    {
      "constant": false,
      "inputs": [
        {
          "name": "spender",
          "type": "address"
        },
        {
          "name": "tokens",
          "type": "uint256"
        }
      ],
      "name": "approve",
      "outputs": [
        {
          "name": "success",
          "type": "bool"
        }
      ],
      "payable": false,
      "stateMutability": "nonpayable",
      "type": "function"
    },
    {
      "constant": true,
      "inputs": [],
      "name": "totalSupply",
      "outputs": [
        {
          "name": "",
          "type": "uint256"
        }
      ],
      "payable": false,
      "stateMutability": "view",
      "type": "function"
    },
    {
      "constant": false,
      "inputs": [
        {
          "name": "from",
          "type": "address"
        },
        {
          "name": "to",
          "type": "address"
        },
        {
          "name": "tokens",
          "type": "uint256"
        }
      ],
      "name": "transferFrom",
      "outputs": [
        {
          "name": "success",
          "type": "bool"
        }
      ],
      "payable": false,
      "stateMutability": "nonpayable",
      "type": "function"
    },
    {
      "constant": true,
      "inputs": [],
      "name": "decimals",
      "outputs": [
        {
          "name": "",
          "type": "uint8"
        }
      ],
      "payable": false,
      "stateMutability": "view",
      "type": "function"
    },
    {
      "constant": true,
      "inputs": [],
      "name": "_totalSupply",
      "outputs": [
        {
          "name": "",
          "type": "uint256"
        }
      ],
      "payable": false,
      "stateMutability": "view",
      "type": "function"
    },
    {
      "constant": true,
      "inputs": [
        {
          "name": "tokenOwner",
          "type": "address"
        }
      ],
      "name": "balanceOf",
      "outputs": [
        {
          "name": "balance",
          "type": "uint256"
        }
      ],
      "payable": false,
      "stateMutability": "view",
      "type": "function"
    },
    {
      "constant": true,
      "inputs": [],
      "name": "owner",
      "outputs": [
        {
          "name": "",
          "type": "address"
        }
      ],
      "payable": false,
      "stateMutability": "view",
      "type": "function"
    },
    {
      "constant": true,
      "inputs": [],
      "name": "symbol",
      "outputs": [
        {
          "name": "",
          "type": "string"
        }
      ],
      "payable": false,
      "stateMutability": "view",
      "type": "function"
    },
    {
      "constant": false,
      "inputs": [
        {
          "name": "to",
          "type": "address"
        },
        {
          "name": "tokens",
          "type": "uint256"
        }
      ],
      "name": "transfer",
      "outputs": [
        {
          "name": "success",
          "type": "bool"
        }
      ],
      "payable": false,
      "stateMutability": "nonpayable",
      "type": "function"
    },
    {
      "constant": false,
      "inputs": [],
      "name": "getOwnership",
      "outputs": [
        {
          "name": "success",
          "type": "bool"
        }
      ],
      "payable": false,
      "stateMutability": "nonpayable",
      "type": "function"
    },
    {
      "constant": true,
      "inputs": [],
      "name": "candidateOwner",
      "outputs": [
        {
          "name": "",
          "type": "address"
        }
      ],
      "payable": false,
      "stateMutability": "view",
      "type": "function"
    },
    {
      "constant": true,
      "inputs": [
        {
          "name": "tokenOwner",
          "type": "address"
        },
        {
          "name": "spender",
          "type": "address"
        }
      ],
      "name": "allowance",
      "outputs": [
        {
          "name": "remaining",
          "type": "uint256"
        }
      ],
      "payable": false,
      "stateMutability": "view",
      "type": "function"
    },
    {
      "inputs": [],
      "payable": false,
      "stateMutability": "nonpayable",
      "type": "constructor"
    },
    {
      "anonymous": false,
      "inputs": [
        {
          "indexed": true,
          "name": "from",
          "type": "address"
        },
        {
          "indexed": true,
          "name": "to",
          "type": "address"
        },
        {
          "indexed": false,
          "name": "tokens",
          "type": "uint256"
        }
      ],
      "name": "Transfer",
      "type": "event"
    },
    {
      "anonymous": false,
      "inputs": [
        {
          "indexed": true,
          "name": "tokenOwner",
          "type": "address"
        },
        {
          "indexed": true,
          "name": "spender",
          "type": "address"
        },
        {
          "indexed": false,
          "name": "tokens",
          "type": "uint256"
        }
      ],
      "name": "Approval",
      "type": "event"
    },
    {
      "anonymous": false,
      "inputs": [
        {
          "indexed": false,
          "name": "success",
          "type": "bool"
        }
      ],
      "name": "UpdatedCandidate",
      "type": "event"
    },
    {
      "anonymous": false,
      "inputs": [
        {
          "indexed": false,
          "name": "success",
          "type": "bool"
        }
      ],
      "name": "GotOwnership",
      "type": "event"
    }
  ],
  "bytecode": "0x6060604052341561000f57600080fd5b60008054600160a060020a033316600160a060020a03199182161790915560018054909116905560408051908101604052600381527f55414300000000000000000000000000000000000000000000000000000000006020820152600290805161007d929160200190610141565b5060408051908101604052600c81527f5562696174617220436f696e0000000000000000000000000000000000000000602082015260039080516100c5929160200190610141565b5060048054601260ff19909116179081905560ff16600a0a62e4e1c002600581905560008054600160a060020a039081168252600660205260408083208490558254909116927fddf252ad1be2c89b69c2b068fc378daa952ba7f163c4a11628f55a4df523b3ef915190815260200160405180910390a36101dc565b828054600181600116156101000203166002900490600052602060002090601f016020900481019282601f1061018257805160ff19168380011785556101af565b828001600101855582156101af579182015b828111156101af578251825591602001919060010190610194565b506101bb9291506101bf565b5090565b6101d991905b808211156101bb57600081556001016101c5565b90565b61093f806101eb6000396000f300606060405236156100cd5763ffffffff7c010000000000000000000000000000000000000000000000000000000060003504166306fdde0381146100d257806307880b7f1461015c578063095ea7b31461018f57806318160ddd146101b157806323b872dd146101d6578063313ce567146101fe5780633eaaf86b1461022757806370a082311461023a5780638da5cb5b1461025957806395d89b4114610288578063a9059cbb1461029b578063aacd7321146102bd578063c105ea2b146102d0578063dd62ed3e146102e3575b600080fd5b34156100dd57600080fd5b6100e5610308565b60405160208082528190810183818151815260200191508051906020019080838360005b83811015610121578082015183820152602001610109565b50505050905090810190601f16801561014e5780820380516001836020036101000a031916815260200191505b509250505060405180910390f35b341561016757600080fd5b61017b600160a060020a03600435166103a6565b604051901515815260200160405180910390f35b341561019a57600080fd5b61017b600160a060020a0360043516602435610425565b34156101bc57600080fd5b6101c46104a5565b60405190815260200160405180910390f35b34156101e157600080fd5b61017b600160a060020a03600435811690602435166044356104d7565b341561020957600080fd5b610211610644565b60405160ff909116815260200160405180910390f35b341561023257600080fd5b6101c461064d565b341561024557600080fd5b6101c4600160a060020a0360043516610653565b341561026457600080fd5b61026c61066e565b604051600160a060020a03909116815260200160405180910390f35b341561029357600080fd5b6100e561067d565b34156102a657600080fd5b61017b600160a060020a03600435166024356106e8565b34156102c857600080fd5b61017b6107e4565b34156102db57600080fd5b61026c610884565b34156102ee57600080fd5b6101c4600160a060020a0360043581169060243516610893565b60038054600181600116156101000203166002900480601f01602080910402602001604051908101604052809291908181526020018280546001816001161561010002031660029004801561039e5780601f106103735761010080835404028352916020019161039e565b820191906000526020600020905b81548152906001019060200180831161038157829003601f168201915b505050505081565b6000805433600160a060020a039081169116146103c257600080fd5b506001805473ffffffffffffffffffffffffffffffffffffffff1916600160a060020a0383161781557f7e87553fb7b0cd614970b6fc082f64d74528668c3c8dc811c7b2f46db172ff7181604051901515815260200160405180910390a1919050565b6000600160a060020a038316151561043c57600080fd5b600160a060020a03338116600081815260076020908152604080832094881680845294909152908190208590557f8c5be1e5ebec7d5bd14f71427d1e84f3dd0314c0f7b2291e5b200ac8c7c3b9259085905190815260200160405180910390a350600192915050565b6000805260066020527f54cdd369e4e8a8515e52ca72ec816c2101831ad1f18bf44102ed171459c9b4f8546005540390565b600160a060020a038316600090815260066020526040812054829010156104fd57600080fd5b600160a060020a03808516600090815260076020908152604080832033909416835292905220548290101561053157600080fd5b600160a060020a03841660009081526006602052604090205461055a908363ffffffff6108eb16565b600160a060020a038086166000908152600660209081526040808320949094556007815283822033909316825291909152205461059d908363ffffffff6108eb16565b600160a060020a03808616600090815260076020908152604080832033851684528252808320949094559186168152600690915220546105e3908363ffffffff6108fd16565b600160a060020a03808516600081815260066020526040908190209390935591908616907fddf252ad1be2c89b69c2b068fc378daa952ba7f163c4a11628f55a4df523b3ef9085905190815260200160405180910390a35060019392505050565b60045460ff1681565b60055481565b600160a060020a031660009081526006602052604090205490565b600054600160a060020a031681565b60028054600181600116156101000203166002900480601f01602080910402602001604051908101604052809291908181526020018280546001816001161561010002031660029004801561039e5780601f106103735761010080835404028352916020019161039e565b6000600160a060020a03831615156106ff57600080fd5b600160a060020a0333166000908152600660205260409020548290101561072557600080fd5b600160a060020a03331660009081526006602052604090205461074e908363ffffffff6108eb16565b600160a060020a033381166000908152600660205260408082209390935590851681522054610783908363ffffffff6108fd16565b600160a060020a0380851660008181526006602052604090819020939093559133909116907fddf252ad1be2c89b69c2b068fc378daa952ba7f163c4a11628f55a4df523b3ef9085905190815260200160405180910390a350600192915050565b600154600090600160a060020a031615156107fe57600080fd5b60015433600160a060020a0390811691161461081957600080fd5b50600180546000805473ffffffffffffffffffffffffffffffffffffffff19908116600160a060020a038416179091551681557f7e8c03b805609103b8d7f06e831995c6a2ab216649e1bf22ef59e31957d84c8981604051901515815260200160405180910390a190565b600154600160a060020a031681565b6000600160a060020a03831615156108aa57600080fd5b600160a060020a03821615156108bf57600080fd5b50600160a060020a03918216600090815260076020908152604080832093909416825291909152205490565b6000828211156108f757fe5b50900390565b60008282018381101561090c57fe5b93925050505600a165627a7a72305820be104831dc467d896c1864896d3dbb80d89eeaf43e1b94a9c05415d98df5d8890029",
  "source": "pragma solidity ^0.4.17;\r\n\r\nimport \"./Owned.sol\";\r\nimport \"./SafeMath.sol\";\r\nimport \"./ERC20Interface.sol\";\r\n\r\ncontract UbiatarCoin is Owned, ERC20Interface{\r\n\r\n     using SafeMath for uint;\r\n\r\n     string public symbol;\r\n     string public  name;\r\n     uint8 public decimals;\r\n     uint public _totalSupply;\r\n\r\n     mapping(address => uint) balances;\r\n     mapping(address => mapping(address => uint)) allowed;\r\n\r\n\r\n     // ------------------------------------------------------------------------\r\n     // Constructor\r\n     // ------------------------------------------------------------------------\r\n     function UbiatarCoin()\r\n     {\r\n         symbol = \"UAC\";\r\n         name = \"Ubiatar Coin\";\r\n         decimals = 18;\r\n         _totalSupply = 15000000 * 10**uint(decimals);\r\n         balances[owner] = _totalSupply;\r\n         Transfer(address(0), owner, _totalSupply);\r\n     }\r\n\r\n\r\n     // ------------------------------------------------------------------------\r\n     // Total supply\r\n     // ------------------------------------------------------------------------\r\n     function totalSupply()\r\n     public\r\n     constant\r\n     returns (uint)\r\n     {\r\n         return _totalSupply  - balances[address(0)];\r\n     }\r\n\r\n\r\n     // ------------------------------------------------------------------------\r\n     // Get the token balance for account `tokenOwner`\r\n     // ------------------------------------------------------------------------\r\n     function balanceOf(address tokenOwner)\r\n     public\r\n     constant\r\n     returns (uint balance)\r\n     {\r\n         return balances[tokenOwner];\r\n     }\r\n\r\n\r\n     // ------------------------------------------------------------------------\r\n     // Transfer the balance from token owner's account to `to` account\r\n     // - Owner's account must have sufficient balance to transfer\r\n     // - 0 value transfers are allowed\r\n     // ------------------------------------------------------------------------\r\n     function transfer(address to, uint tokens)\r\n     public\r\n     returns (bool success)\r\n     {\r\n         require(to != 0x0);\r\n         require(balances[msg.sender] >= tokens);\r\n         balances[msg.sender] = balances[msg.sender].sub(tokens);\r\n         balances[to] = balances[to].add(tokens);\r\n         Transfer(msg.sender, to, tokens);\r\n         return true;\r\n     }\r\n\r\n\r\n     // ------------------------------------------------------------------------\r\n     // Token owner can approve for `spender` to transferFrom(...) `tokens`\r\n     // from the token owner's account\r\n     //\r\n     // https://github.com/ethereum/EIPs/blob/master/EIPS/eip-20-token-standard.md\r\n     // recommends that there are no checks for the approval double-spend attack\r\n     // as this should be implemented in user interfaces\r\n     // ------------------------------------------------------------------------\r\n     function approve(address spender, uint tokens)\r\n     public\r\n     returns (bool success)\r\n     {\r\n         require(spender != 0x0);\r\n         allowed[msg.sender][spender] = tokens;\r\n         Approval(msg.sender, spender, tokens);\r\n         return true;\r\n     }\r\n\r\n\r\n     // ------------------------------------------------------------------------\r\n     // Transfer `tokens` from the `from` account to the `to` account\r\n     //\r\n     // The calling account must already have sufficient tokens approve(...)-d\r\n     // for spending from the `from` account and\r\n     // - From account must have sufficient balance to transfer\r\n     // - Spender must have sufficient allowance to transfer\r\n     // - 0 value transfers are allowed\r\n     // ------------------------------------------------------------------------\r\n     function transferFrom(address from, address to, uint tokens)\r\n     public\r\n     returns (bool success)\r\n     {\r\n         require(balances[from] >= tokens);\r\n         require(allowed[from][msg.sender] >= tokens);\r\n         balances[from] = balances[from].sub(tokens);\r\n         allowed[from][msg.sender] = allowed[from][msg.sender].sub(tokens);\r\n         balances[to] = balances[to].add(tokens);\r\n         Transfer(from, to, tokens);\r\n         return true;\r\n     }\r\n\r\n\r\n     // ------------------------------------------------------------------------\r\n     // Returns the amount of tokens approved by the owner that can be\r\n     // transferred to the spender's account\r\n     // ------------------------------------------------------------------------\r\n     function allowance(address tokenOwner, address spender)\r\n     public\r\n     constant\r\n     returns (uint remaining)\r\n     {\r\n         require(tokenOwner != 0x0);\r\n         require(spender != 0x0);\r\n         return allowed[tokenOwner][spender];\r\n     }\r\n}\r\n",
  "sourcePath": "C:\\Users\\Fabio\\Desktop\\ubiatar\\UbiatarCoin\\contracts\\UbiatarCoin.sol",
  "schemaVersion": "1.0.0",
  "updatedAt": "2018-01-20T11:41:20.281Z"
}